:1000000001308A00DE2900000A108A100A118207D6
:1000100028340C34013406340C00D730F43272101A
:10002000CC32F6326C10433A723600010C00D730F5
:10003000F432721D2024E9336810201020102000B3
:10004000D03A6D383A104F2346102010201020105F
:100050002000D730F432721DA0266532E93A6D10C7
:1000600020100001D03A6D383A104F272010201090
:10007000201020100001D730F432721D2026EF3BF3
:10008000201020102000D03A6D383A104F27201051
:10009000201020102000283084008313000803194A
:1000A0005F280130F800F701F70B5428F80B5328AC
:1000B0004A30F700F70B5A285D28800B51280800BA
:1000C0002F18642808126528081683160812831250
:1000D000AF186C2888126D28881683168812831230
:1000E0002F1974280813752808178316081383120C
:1000F000AF197C2888137D28881783168813000081
:10010000831208148316081085288312081083169A
:10011000081083120800B0018316081600308312FD
:10012000081A0130B0048316881600308312881A2A
:100130000130F7000310F70D7708B0048316081795
:1001400000308312081B0130F700F70DF70DFC306B
:10015000F7057708B0048316881700308312881BD0
:100160000130F700F70DF70DF70DF830F7057708B8
:10017000B0043008F8000800831608108810081131
:100180008312881083168810081688160817881797
:1001900083120815831608110000831208148316B1
:1001A0000810000083128B207808AF000810831617
:1001B0000810000083120814831608100000831230
:1001C0008B207808AE0008108316081008128812D9
:1001D0000813881383122F0EF700F030F705770805
:1001E0002E04F8007808AE00AE1FF8288316C42845
:1001F000AC08031DFD288810FE288814831688107B
:1002000000008312081183160811000083120810E1
:100210008316081083122D0EAE000F30AE052E0887
:10022000AF0060202D080F39AE00AF00602008003D
:1002300083160812881208138813081088100811F2
:1002400083128810831688108312081183160811F0
:1002500083120810831608100F308312A8004B2059
:100260000130A3002308033C031C3E290330AF00E8
:1002700060200530A8004B20A30A32290230AF00CD
:1002800060200530A8004B20A3012308033C031C79
:10029000522923080420A400AC012408AD00BC208E
:1002A000A30A45298A110A12ED29290B58295B292D
:1002B0004030AA005C29AA0101302802AA072A08B6
:1002C0008038AB00AC012B08AD00BC20080027082B
:1002D000073A031975290B3A03197A29063A0319C3
:1002E0008229023A031988298D290130A800A90022
:1002F00055219229AC010130AD00BC200230A8008C
:100300004B2092290130A8000230A90055219229E2
:10031000AC011030AD00BC2092290130AC002708A0
:10032000AD00BC2008000B08A3008B138316031735
:100330008C170C140000000083120C087F3903197D
:10034000DA290313A40003170D080313A5000317EC
:100350000F080313A6002408A70067212508031728
:100360008D000313260803178F0083168C170C14B7
:100370000000000083120C0D0E0D7F390319DA29DD
:100380000313A40003170D080313A50003170F0898
:100390000313A6002408A7006721250803178D0072
:1003A0000313260803178F008D0A03198F0A0313FE
:1003B000962903170313A31B8B17080003081F3983
:1003C0008300FF30A00083161F149F141F159F1178
:1003D00007309C008313831218290C3003178D00FB
:1003E00000308F00031393210D3003178D00003070
:1003F0008F00031393210830A300FA30A8004B208C
:10040000A30BFD29163003178D0000308F00031356
:100410009321FF3083168500FE3087008312A000F1
:10042000003083168800831220102008831687006E
:1004300083120710831605148312A1010518A10A5F
:10044000831685148312A2018518A20AA108031D30
:100450004A2AA208031D4A2A0130A800A9005521F2
:10046000173003178D0000308F00031393212010E5
:10047000200883168700831207140130A800023079
:10048000A9005521203003178D0000308F00031381
:1004900093218E2AA10803196E2AA208031D6E2A31
:1004A0000130A800A9005521293003178D00003024
:1004B0008F000313932120102008831687008312D6
:1004C00007100130A8000230A9005521323003176F
:1004D0008D0000308F00031393218E2AA208031988
:1004E0008E2A0130A800A90055213B3003178D004A
:1004F00000308F00031393212010200883168700FB
:10050000831207100130A8000230A90055214330A2
:1005100003178D0000308F00031393210230A300D6
:0E052000FA30A8004B20A30B902A1A2A630081
:02400E00313F40
:00000001FF
;PIC16F877A
;CRC=DD7D  CREATED="09-Nov-24 15:19"
